{
  "_format": "hh-sol-artifact-1",
  "contractName": "CommunityToken_ERC20",
  "sourceName": "contracts/CommunityToken_ERC20.sol",
  "abi": [
    {
      "inputs": [
        {
          "internalType": "address",
          "name": "WITH_ADMIN_",
          "type": "address"
        }
      ],
      "stateMutability": "nonpayable",
      "type": "constructor"
    },
    {
      "anonymous": false,
      "inputs": [
        {
          "indexed": true,
          "internalType": "address",
          "name": "owner",
          "type": "address"
        },
        {
          "indexed": true,
          "internalType": "address",
          "name": "spender",
          "type": "address"
        },
        {
          "indexed": false,
          "internalType": "uint256",
          "name": "value",
          "type": "uint256"
        }
      ],
      "name": "Approval",
      "type": "event"
    },
    {
      "anonymous": false,
      "inputs": [
        {
          "indexed": true,
          "internalType": "address",
          "name": "from",
          "type": "address"
        },
        {
          "indexed": true,
          "internalType": "address",
          "name": "to",
          "type": "address"
        },
        {
          "indexed": false,
          "internalType": "uint256",
          "name": "value",
          "type": "uint256"
        }
      ],
      "name": "Transfer",
      "type": "event"
    },
    {
      "inputs": [
        {
          "internalType": "uint256",
          "name": "event_id_",
          "type": "uint256"
        },
        {
          "internalType": "address",
          "name": "host_",
          "type": "address"
        },
        {
          "internalType": "bool",
          "name": "token_payable_",
          "type": "bool"
        }
      ],
      "name": "add_event",
      "outputs": [
        {
          "internalType": "bool",
          "name": "",
          "type": "bool"
        }
      ],
      "stateMutability": "nonpayable",
      "type": "function"
    },
    {
      "inputs": [
        {
          "internalType": "address",
          "name": "new_user_",
          "type": "address"
        }
      ],
      "name": "add_user",
      "outputs": [
        {
          "internalType": "bool",
          "name": "",
          "type": "bool"
        }
      ],
      "stateMutability": "nonpayable",
      "type": "function"
    },
    {
      "inputs": [
        {
          "internalType": "address",
          "name": "owner",
          "type": "address"
        },
        {
          "internalType": "address",
          "name": "spender",
          "type": "address"
        }
      ],
      "name": "allowance",
      "outputs": [
        {
          "internalType": "uint256",
          "name": "",
          "type": "uint256"
        }
      ],
      "stateMutability": "view",
      "type": "function"
    },
    {
      "inputs": [
        {
          "internalType": "address",
          "name": "spender",
          "type": "address"
        },
        {
          "internalType": "uint256",
          "name": "amount",
          "type": "uint256"
        }
      ],
      "name": "approve",
      "outputs": [
        {
          "internalType": "bool",
          "name": "",
          "type": "bool"
        }
      ],
      "stateMutability": "nonpayable",
      "type": "function"
    },
    {
      "inputs": [
        {
          "internalType": "address",
          "name": "account",
          "type": "address"
        }
      ],
      "name": "balanceOf",
      "outputs": [
        {
          "internalType": "uint256",
          "name": "",
          "type": "uint256"
        }
      ],
      "stateMutability": "view",
      "type": "function"
    },
    {
      "inputs": [],
      "name": "decimals",
      "outputs": [
        {
          "internalType": "uint8",
          "name": "",
          "type": "uint8"
        }
      ],
      "stateMutability": "view",
      "type": "function"
    },
    {
      "inputs": [
        {
          "internalType": "address",
          "name": "spender",
          "type": "address"
        },
        {
          "internalType": "uint256",
          "name": "subtractedValue",
          "type": "uint256"
        }
      ],
      "name": "decreaseAllowance",
      "outputs": [
        {
          "internalType": "bool",
          "name": "",
          "type": "bool"
        }
      ],
      "stateMutability": "nonpayable",
      "type": "function"
    },
    {
      "inputs": [
        {
          "internalType": "uint256",
          "name": "event_id",
          "type": "uint256"
        }
      ],
      "name": "event_payment",
      "outputs": [
        {
          "internalType": "bool",
          "name": "",
          "type": "bool"
        }
      ],
      "stateMutability": "nonpayable",
      "type": "function"
    },
    {
      "inputs": [
        {
          "internalType": "address",
          "name": "spender",
          "type": "address"
        },
        {
          "internalType": "uint256",
          "name": "addedValue",
          "type": "uint256"
        }
      ],
      "name": "increaseAllowance",
      "outputs": [
        {
          "internalType": "bool",
          "name": "",
          "type": "bool"
        }
      ],
      "stateMutability": "nonpayable",
      "type": "function"
    },
    {
      "inputs": [],
      "name": "name",
      "outputs": [
        {
          "internalType": "string",
          "name": "",
          "type": "string"
        }
      ],
      "stateMutability": "view",
      "type": "function"
    },
    {
      "inputs": [],
      "name": "symbol",
      "outputs": [
        {
          "internalType": "string",
          "name": "",
          "type": "string"
        }
      ],
      "stateMutability": "view",
      "type": "function"
    },
    {
      "inputs": [],
      "name": "totalSupply",
      "outputs": [
        {
          "internalType": "uint256",
          "name": "",
          "type": "uint256"
        }
      ],
      "stateMutability": "view",
      "type": "function"
    },
    {
      "inputs": [
        {
          "internalType": "address",
          "name": "to",
          "type": "address"
        },
        {
          "internalType": "uint256",
          "name": "amount",
          "type": "uint256"
        }
      ],
      "name": "transfer",
      "outputs": [
        {
          "internalType": "bool",
          "name": "",
          "type": "bool"
        }
      ],
      "stateMutability": "nonpayable",
      "type": "function"
    },
    {
      "inputs": [
        {
          "internalType": "address",
          "name": "from",
          "type": "address"
        },
        {
          "internalType": "address",
          "name": "to",
          "type": "address"
        },
        {
          "internalType": "uint256",
          "name": "amount",
          "type": "uint256"
        }
      ],
      "name": "transferFrom",
      "outputs": [
        {
          "internalType": "bool",
          "name": "",
          "type": "bool"
        }
      ],
      "stateMutability": "nonpayable",
      "type": "function"
    },
    {
      "inputs": [
        {
          "internalType": "uint256",
          "name": "event_id_",
          "type": "uint256"
        },
        {
          "internalType": "address",
          "name": "attendee",
          "type": "address"
        }
      ],
      "name": "verify_attendence",
      "outputs": [
        {
          "internalType": "bool",
          "name": "",
          "type": "bool"
        }
      ],
      "stateMutability": "nonpayable",
      "type": "function"
    }
  ],
  "bytecode": "0x60806040523480156200001157600080fd5b50604051620023973803806200239783398181016040528101906200003791906200039e565b6040518060400160405280600781526020017f54656c20486169000000000000000000000000000000000000000000000000008152506040518060400160405280600781526020017f574954485f5448000000000000000000000000000000000000000000000000008152508160039080519060200190620000bb929190620002d7565b508060049080519060200190620000d4929190620002d7565b50505080600560006101000a81548173ffffffffffffffffffffffffffffffffffffffff021916908373ffffffffffffffffffffffffffffffffffffffff1602179055506200014d600560009054906101000a900473ffffffffffffffffffffffffffffffffffffffff1660036200015460201b60201c565b50620005b6565b600073ffffffffffffffffffffffffffffffffffffffff168273ffffffffffffffffffffffffffffffffffffffff161415620001c7576040517f08c379a0000000000000000000000000000000000000000000000000000000008152600401620001be906200041d565b60405180910390fd5b620001db60008383620002cd60201b60201c565b8060026000828254620001ef91906200046d565b92505081905550806000808473ffffffffffffffffffffffffffffffffffffffff1673ffffffffffffffffffffffffffffffffffffffff16815260200190815260200160002060008282546200024691906200046d565b925050819055508173ffffffffffffffffffffffffffffffffffffffff16600073ffffffffffffffffffffffffffffffffffffffff167fddf252ad1be2c89b69c2b068fc378daa952ba7f163c4a11628f55a4df523b3ef83604051620002ad91906200043f565b60405180910390a3620002c960008383620002d260201b60201c565b5050565b505050565b505050565b828054620002e59062000508565b90600052602060002090601f01602090048101928262000309576000855562000355565b82601f106200032457805160ff191683800117855562000355565b8280016001018555821562000355579182015b828111156200035457825182559160200191906001019062000337565b5b50905062000364919062000368565b5090565b5b808211156200038357600081600090555060010162000369565b5090565b60008151905062000398816200059c565b92915050565b600060208284031215620003b157600080fd5b6000620003c18482850162000387565b91505092915050565b6000620003d9601f836200045c565b91507f45524332303a206d696e7420746f20746865207a65726f2061646472657373006000830152602082019050919050565b6200041781620004fe565b82525050565b600060208201905081810360008301526200043881620003ca565b9050919050565b60006020820190506200045660008301846200040c565b92915050565b600082825260208201905092915050565b60006200047a82620004fe565b91506200048783620004fe565b9250827fffffffffffffffffffffffffffffffffffffffffffffffffffffffffffffffff03821115620004bf57620004be6200053e565b5b828201905092915050565b6000620004d782620004de565b9050919050565b600073ffffffffffffffffffffffffffffffffffffffff82169050919050565b6000819050919050565b600060028204905060018216806200052157607f821691505b602082108114156200053857620005376200056d565b5b50919050565b7f4e487b7100000000000000000000000000000000000000000000000000000000600052601160045260246000fd5b7f4e487b7100000000000000000000000000000000000000000000000000000000600052602260045260246000fd5b620005a781620004ca565b8114620005b357600080fd5b50565b611dd180620005c66000396000f3fe608060405234801561001057600080fd5b50600436106100f55760003560e01c80634bf0e20b11610097578063a9059cbb11610066578063a9059cbb146102c2578063dd62ed3e146102f2578063ddceac4414610322578063e974d98d14610352576100f5565b80634bf0e20b1461021457806370a082311461024457806395d89b4114610274578063a457c2d714610292576100f5565b806323b872dd116100d357806323b872dd146101665780632d581e7114610196578063313ce567146101c657806339509351146101e4576100f5565b806306fdde03146100fa578063095ea7b31461011857806318160ddd14610148575b600080fd5b610102610382565b60405161010f91906119b9565b60405180910390f35b610132600480360381019061012d91906113f2565b610414565b60405161013f919061199e565b60405180910390f35b610150610437565b60405161015d9190611b5b565b60405180910390f35b610180600480360381019061017b91906113a3565b610441565b60405161018d919061199e565b60405180910390f35b6101b060048036038101906101ab919061133e565b610470565b6040516101bd919061199e565b60405180910390f35b6101ce610563565b6040516101db9190611b76565b60405180910390f35b6101fe60048036038101906101f991906113f2565b61056c565b60405161020b919061199e565b60405180910390f35b61022e6004803603810190610229919061142e565b6105a3565b60405161023b919061199e565b60405180910390f35b61025e6004803603810190610259919061133e565b61065a565b60405161026b9190611b5b565b60405180910390f35b61027c6106a2565b60405161028991906119b9565b60405180910390f35b6102ac60048036038101906102a791906113f2565b610734565b6040516102b9919061199e565b60405180910390f35b6102dc60048036038101906102d791906113f2565b6107ab565b6040516102e9919061199e565b60405180910390f35b61030c60048036038101906103079190611367565b6107ce565b6040516103199190611b5b565b60405180910390f35b61033c60048036038101906103379190611457565b610855565b604051610349919061199e565b60405180910390f35b61036c60048036038101906103679190611493565b6109ec565b604051610379919061199e565b60405180910390f35b60606003805461039190611c8b565b80601f01602080910402602001604051908101604052809291908181526020018280546103bd90611c8b565b801561040a5780601f106103df5761010080835404028352916020019161040a565b820191906000526020600020905b8154815290600101906020018083116103ed57829003601f168201915b5050505050905090565b60008061041f610b78565b905061042c818585610b80565b600191505092915050565b6000600254905090565b60008061044c610b78565b9050610459858285610d4b565b610464858585610dd7565b60019150509392505050565b6000600560009054906101000a900473ffffffffffffffffffffffffffffffffffffffff1673ffffffffffffffffffffffffffffffffffffffff163373ffffffffffffffffffffffffffffffffffffffff1614610502576040517f08c379a00000000000000000000000000000000000000000000000000000000081526004016104f990611a1b565b60405180910390fd5b6001600760008473ffffffffffffffffffffffffffffffffffffffff1673ffffffffffffffffffffffffffffffffffffffff16815260200190815260200160002060006101000a81548160ff02191690831515021790555060019050919050565b60006012905090565b600080610577610b78565b905061059881858561058985896107ce565b6105939190611bad565b610b80565b600191505092915050565b6000600115156006600084815260200190815260200160002060000160149054906101000a900460ff1615151461060f576040517f08c379a000000000000000000000000000000000000000000000000000000000815260040161060690611afb565b60405180910390fd5b6106506006600084815260200190815260200160002060000160009054906101000a900473ffffffffffffffffffffffffffffffffffffffff1660016107ab565b5060019050919050565b60008060008373ffffffffffffffffffffffffffffffffffffffff1673ffffffffffffffffffffffffffffffffffffffff168152602001908152602001600020549050919050565b6060600480546106b190611c8b565b80601f01602080910402602001604051908101604052809291908181526020018280546106dd90611c8b565b801561072a5780601f106106ff5761010080835404028352916020019161072a565b820191906000526020600020905b81548152906001019060200180831161070d57829003601f168201915b5050505050905090565b60008061073f610b78565b9050600061074d82866107ce565b905083811015610792576040517f08c379a000000000000000000000000000000000000000000000000000000000815260040161078990611b1b565b60405180910390fd5b61079f8286868403610b80565b60019250505092915050565b6000806107b6610b78565b90506107c3818585610dd7565b600191505092915050565b6000600160008473ffffffffffffffffffffffffffffffffffffffff1673ffffffffffffffffffffffffffffffffffffffff16815260200190815260200160002060008373ffffffffffffffffffffffffffffffffffffffff1673ffffffffffffffffffffffffffffffffffffffff16815260200190815260200160002054905092915050565b60003373ffffffffffffffffffffffffffffffffffffffff166006600085815260200190815260200160002060000160009054906101000a900473ffffffffffffffffffffffffffffffffffffffff1673ffffffffffffffffffffffffffffffffffffffff1614801561092d5750600115156006600085815260200190815260200160002060010160008473ffffffffffffffffffffffffffffffffffffffff1673ffffffffffffffffffffffffffffffffffffffff16815260200190815260200160002060009054906101000a900460ff16151514155b61096c576040517f08c379a0000000000000000000000000000000000000000000000000000000008152600401610963906119db565b60405180910390fd5b60016006600085815260200190815260200160002060010160008473ffffffffffffffffffffffffffffffffffffffff1673ffffffffffffffffffffffffffffffffffffffff16815260200190815260200160002060006101000a81548160ff0219169083151502179055506109e182611058565b506001905092915050565b6000600560009054906101000a900473ffffffffffffffffffffffffffffffffffffffff1673ffffffffffffffffffffffffffffffffffffffff163373ffffffffffffffffffffffffffffffffffffffff1614610a7e576040517f08c379a0000000000000000000000000000000000000000000000000000000008152600401610a7590611a9b565b60405180910390fd5b60016006600086815260200190815260200160002060010160008573ffffffffffffffffffffffffffffffffffffffff1673ffffffffffffffffffffffffffffffffffffffff16815260200190815260200160002060006101000a81548160ff021916908315150217905550816006600086815260200190815260200160002060000160146101000a81548160ff021916908315150217905550826006600086815260200190815260200160002060000160006101000a81548173ffffffffffffffffffffffffffffffffffffffff021916908373ffffffffffffffffffffffffffffffffffffffff160217905550600190509392505050565b600033905090565b600073ffffffffffffffffffffffffffffffffffffffff168373ffffffffffffffffffffffffffffffffffffffff161415610bf0576040517f08c379a0000000000000000000000000000000000000000000000000000000008152600401610be790611adb565b60405180910390fd5b600073ffffffffffffffffffffffffffffffffffffffff168273ffffffffffffffffffffffffffffffffffffffff161415610c60576040517f08c379a0000000000000000000000000000000000000000000000000000000008152600401610c5790611a3b565b60405180910390fd5b80600160008573ffffffffffffffffffffffffffffffffffffffff1673ffffffffffffffffffffffffffffffffffffffff16815260200190815260200160002060008473ffffffffffffffffffffffffffffffffffffffff1673ffffffffffffffffffffffffffffffffffffffff168152602001908152602001600020819055508173ffffffffffffffffffffffffffffffffffffffff168373ffffffffffffffffffffffffffffffffffffffff167f8c5be1e5ebec7d5bd14f71427d1e84f3dd0314c0f7b2291e5b200ac8c7c3b92583604051610d3e9190611b5b565b60405180910390a3505050565b6000610d5784846107ce565b90507fffffffffffffffffffffffffffffffffffffffffffffffffffffffffffffffff8114610dd15781811015610dc3576040517f08c379a0000000000000000000000000000000000000000000000000000000008152600401610dba90611a5b565b60405180910390fd5b610dd08484848403610b80565b5b50505050565b600073ffffffffffffffffffffffffffffffffffffffff168373ffffffffffffffffffffffffffffffffffffffff161415610e47576040517f08c379a0000000000000000000000000000000000000000000000000000000008152600401610e3e90611abb565b60405180910390fd5b600073ffffffffffffffffffffffffffffffffffffffff168273ffffffffffffffffffffffffffffffffffffffff161415610eb7576040517f08c379a0000000000000000000000000000000000000000000000000000000008152600401610eae906119fb565b60405180910390fd5b610ec2838383611195565b60008060008573ffffffffffffffffffffffffffffffffffffffff1673ffffffffffffffffffffffffffffffffffffffff16815260200190815260200160002054905081811015610f48576040517f08c379a0000000000000000000000000000000000000000000000000000000008152600401610f3f90611a7b565b60405180910390fd5b8181036000808673ffffffffffffffffffffffffffffffffffffffff1673ffffffffffffffffffffffffffffffffffffffff16815260200190815260200160002081905550816000808573ffffffffffffffffffffffffffffffffffffffff1673ffffffffffffffffffffffffffffffffffffffff1681526020019081526020016000206000828254610fdb9190611bad565b925050819055508273ffffffffffffffffffffffffffffffffffffffff168473ffffffffffffffffffffffffffffffffffffffff167fddf252ad1be2c89b69c2b068fc378daa952ba7f163c4a11628f55a4df523b3ef8460405161103f9190611b5b565b60405180910390a361105284848461119a565b50505050565b6000600860008373ffffffffffffffffffffffffffffffffffffffff1673ffffffffffffffffffffffffffffffffffffffff168152602001908152602001600020600081819054906101000a900460ff16809291906110b690611cbd565b91906101000a81548160ff021916908360ff160217905550506003600860008473ffffffffffffffffffffffffffffffffffffffff1673ffffffffffffffffffffffffffffffffffffffff16815260200190815260200160002060009054906101000a900460ff1660ff16141561118c576000600860008473ffffffffffffffffffffffffffffffffffffffff1673ffffffffffffffffffffffffffffffffffffffff16815260200190815260200160002060006101000a81548160ff021916908360ff16021790555061118b82600161119f565b5b60019050919050565b505050565b505050565b600073ffffffffffffffffffffffffffffffffffffffff168273ffffffffffffffffffffffffffffffffffffffff16141561120f576040517f08c379a000000000000000000000000000000000000000000000000000000000815260040161120690611b3b565b60405180910390fd5b61121b60008383611195565b806002600082825461122d9190611bad565b92505081905550806000808473ffffffffffffffffffffffffffffffffffffffff1673ffffffffffffffffffffffffffffffffffffffff16815260200190815260200160002060008282546112829190611bad565b925050819055508173ffffffffffffffffffffffffffffffffffffffff16600073ffffffffffffffffffffffffffffffffffffffff167fddf252ad1be2c89b69c2b068fc378daa952ba7f163c4a11628f55a4df523b3ef836040516112e79190611b5b565b60405180910390a36112fb6000838361119a565b5050565b60008135905061130e81611d56565b92915050565b60008135905061132381611d6d565b92915050565b60008135905061133881611d84565b92915050565b60006020828403121561135057600080fd5b600061135e848285016112ff565b91505092915050565b6000806040838503121561137a57600080fd5b6000611388858286016112ff565b9250506020611399858286016112ff565b9150509250929050565b6000806000606084860312156113b857600080fd5b60006113c6868287016112ff565b93505060206113d7868287016112ff565b92505060406113e886828701611329565b9150509250925092565b6000806040838503121561140557600080fd5b6000611413858286016112ff565b925050602061142485828601611329565b9150509250929050565b60006020828403121561144057600080fd5b600061144e84828501611329565b91505092915050565b6000806040838503121561146a57600080fd5b600061147885828601611329565b9250506020611489858286016112ff565b9150509250929050565b6000806000606084860312156114a857600080fd5b60006114b686828701611329565b93505060206114c7868287016112ff565b92505060406114d886828701611314565b9150509250925092565b6114eb81611c15565b82525050565b60006114fc82611b91565b6115068185611b9c565b9350611516818560208601611c58565b61151f81611d45565b840191505092915050565b6000611537604d83611b9c565b91507f4576656e7420646f65736e27742065786973742c20617474656e64656e63652060008301527f77617320616c72656164792076657269666965642c206f7220796f752061726560208301527f206e6f742074686520686f7374000000000000000000000000000000000000006040830152606082019050919050565b60006115c3602383611b9c565b91507f45524332303a207472616e7366657220746f20746865207a65726f206164647260008301527f65737300000000000000000000000000000000000000000000000000000000006020830152604082019050919050565b6000611629601383611b9c565b91507f556e617574686f72697a656420416374696f6e000000000000000000000000006000830152602082019050919050565b6000611669602283611b9c565b91507f45524332303a20617070726f766520746f20746865207a65726f20616464726560008301527f73730000000000000000000000000000000000000000000000000000000000006020830152604082019050919050565b60006116cf601d83611b9c565b91507f45524332303a20696e73756666696369656e7420616c6c6f77616e63650000006000830152602082019050919050565b600061170f602683611b9c565b91507f45524332303a207472616e7366657220616d6f756e742065786365656473206260008301527f616c616e636500000000000000000000000000000000000000000000000000006020830152604082019050919050565b6000611775601a83611b9c565b91507f4f6e6c792041646d696e732063616e20616464206576656e74730000000000006000830152602082019050919050565b60006117b5602583611b9c565b91507f45524332303a207472616e736665722066726f6d20746865207a65726f20616460008301527f64726573730000000000000000000000000000000000000000000000000000006020830152604082019050919050565b600061181b602483611b9c565b91507f45524332303a20617070726f76652066726f6d20746865207a65726f2061646460008301527f72657373000000000000000000000000000000000000000000000000000000006020830152604082019050919050565b6000611881602983611b9c565b91507f596f752063616e6e6f742070617920666f722074686973206576656e7420776960008301527f746820746f6b656e7300000000000000000000000000000000000000000000006020830152604082019050919050565b60006118e7602583611b9c565b91507f45524332303a2064656372656173656420616c6c6f77616e63652062656c6f7760008301527f207a65726f0000000000000000000000000000000000000000000000000000006020830152604082019050919050565b600061194d601f83611b9c565b91507f45524332303a206d696e7420746f20746865207a65726f2061646472657373006000830152602082019050919050565b61198981611c41565b82525050565b61199881611c4b565b82525050565b60006020820190506119b360008301846114e2565b92915050565b600060208201905081810360008301526119d381846114f1565b905092915050565b600060208201905081810360008301526119f48161152a565b9050919050565b60006020820190508181036000830152611a14816115b6565b9050919050565b60006020820190508181036000830152611a348161161c565b9050919050565b60006020820190508181036000830152611a548161165c565b9050919050565b60006020820190508181036000830152611a74816116c2565b9050919050565b60006020820190508181036000830152611a9481611702565b9050919050565b60006020820190508181036000830152611ab481611768565b9050919050565b60006020820190508181036000830152611ad4816117a8565b9050919050565b60006020820190508181036000830152611af48161180e565b9050919050565b60006020820190508181036000830152611b1481611874565b9050919050565b60006020820190508181036000830152611b34816118da565b9050919050565b60006020820190508181036000830152611b5481611940565b9050919050565b6000602082019050611b706000830184611980565b92915050565b6000602082019050611b8b600083018461198f565b92915050565b600081519050919050565b600082825260208201905092915050565b6000611bb882611c41565b9150611bc383611c41565b9250827fffffffffffffffffffffffffffffffffffffffffffffffffffffffffffffffff03821115611bf857611bf7611ce7565b5b828201905092915050565b6000611c0e82611c21565b9050919050565b60008115159050919050565b600073ffffffffffffffffffffffffffffffffffffffff82169050919050565b6000819050919050565b600060ff82169050919050565b60005b83811015611c76578082015181840152602081019050611c5b565b83811115611c85576000848401525b50505050565b60006002820490506001821680611ca357607f821691505b60208210811415611cb757611cb6611d16565b5b50919050565b6000611cc882611c4b565b915060ff821415611cdc57611cdb611ce7565b5b600182019050919050565b7f4e487b7100000000000000000000000000000000000000000000000000000000600052601160045260246000fd5b7f4e487b7100000000000000000000000000000000000000000000000000000000600052602260045260246000fd5b6000601f19601f8301169050919050565b611d5f81611c03565b8114611d6a57600080fd5b50565b611d7681611c15565b8114611d8157600080fd5b50565b611d8d81611c41565b8114611d9857600080fd5b5056fea2646970667358221220a7160cdce1c5873ee1941e33790ec00d297c29171aa75171cbf90c1afd420f3364736f6c63430008000033",
  "linkReferences": {},
  "deployedLinkReferences": {}
}